{
  "contractName": "Account",
  "abi": [
    {
      "constant": false,
      "inputs": [
        {
          "internalType": "address",
          "name": "addr",
          "type": "address"
        }
      ],
      "name": "verifyAccount",
      "outputs": [],
      "payable": false,
      "stateMutability": "nonpayable",
      "type": "function"
    },
    {
      "constant": true,
      "inputs": [
        {
          "internalType": "address",
          "name": "addr",
          "type": "address"
        }
      ],
      "name": "viewAccountState",
      "outputs": [
        {
          "internalType": "enum Account.status",
          "name": "state",
          "type": "uint8"
        }
      ],
      "payable": false,
      "stateMutability": "view",
      "type": "function"
    },
    {
      "constant": true,
      "inputs": [],
      "name": "getUnverifiedStatus",
      "outputs": [
        {
          "internalType": "enum Account.status",
          "name": "state",
          "type": "uint8"
        }
      ],
      "payable": false,
      "stateMutability": "pure",
      "type": "function"
    },
    {
      "constant": true,
      "inputs": [],
      "name": "getVerifiedStatus",
      "outputs": [
        {
          "internalType": "enum Account.status",
          "name": "state",
          "type": "uint8"
        }
      ],
      "payable": false,
      "stateMutability": "pure",
      "type": "function"
    }
  ],
  "bytecode": "0x608060405234801561001057600080fd5b50610257806100206000396000f3fe608060405234801561001057600080fd5b506004361061004c5760003560e01c806390f9b678146100515780639a6c89511461007d578063a76dd774146100e3578063f16dfbe91461010f575b600080fd5b610059610153565b6040518082600181111561006957fe5b60ff16815260200191505060405180910390f35b6100bf6004803603602081101561009357600080fd5b81019080803573ffffffffffffffffffffffffffffffffffffffff16906020019092919050505061015b565b604051808260018111156100cf57fe5b60ff16815260200191505060405180910390f35b6100eb6101b3565b604051808260018111156100fb57fe5b60ff16815260200191505060405180910390f35b6101516004803603602081101561012557600080fd5b81019080803573ffffffffffffffffffffffffffffffffffffffff1690602001909291905050506101bc565b005b600080905090565b60008060008373ffffffffffffffffffffffffffffffffffffffff1673ffffffffffffffffffffffffffffffffffffffff16815260200190815260200160002060000160009054906101000a900460ff169050919050565b60006001905090565b60016000808373ffffffffffffffffffffffffffffffffffffffff1673ffffffffffffffffffffffffffffffffffffffff16815260200190815260200160002060000160006101000a81548160ff0219169083600181111561021a57fe5b02179055505056fea265627a7a7231582039b87c14b91d5fe1912853e8036845111737764007e8516a23cd143a964b85ab64736f6c63430005110032",
  "source": "pragma solidity ^0.5.0;\r\n\r\ncontract Account {\r\n    // Struct creation for the account member\r\n    enum status {\r\n        unverified,\r\n        verified\r\n    }\r\n\r\n    struct account {\r\n        status state; // whether an account can sell tickets\r\n    }\r\n\r\n    mapping (address => account) accounts;\r\n\r\n    /* Ensures an account is allowed to list on the platform */\r\n    function verifyAccount(address addr) public {\r\n        accounts[addr].state = status.verified;\r\n    }\r\n\r\n    /* View account verification state*/\r\n    function viewAccountState(address addr) public view returns (status state) {\r\n        return accounts[addr].state;\r\n    }\r\n    \r\n    function getUnverifiedStatus() public pure returns (status state) {\r\n        return status.unverified;\r\n    }\r\n\r\n    function getVerifiedStatus() public pure returns (status state) {\r\n        return status.verified;\r\n    }\r\n}",
  "sourcePath": "C:\\Users\\remus\\Desktop\\3.2\\IS4302\\Project\\contracts\\Account.sol",
  "compiler": {
    "name": "solc",
    "version": "0.5.17+commit.d19bba13.Emscripten.clang"
  },
  "schemaVersion": "3.4.11",
  "updatedAt": "2023-03-21T08:15:58.181Z",
  "devdoc": {
    "methods": {}
  },
  "userdoc": {
    "methods": {}
  }
}