{
  "contractName": "Event",
  "abi": [
    {
      "inputs": [
        {
          "internalType": "contract Ticket",
          "name": "ticketAddress",
          "type": "address"
        }
      ],
      "payable": false,
      "stateMutability": "nonpayable",
      "type": "constructor"
    },
    {
      "constant": true,
      "inputs": [
        {
          "internalType": "uint256",
          "name": "",
          "type": "uint256"
        }
      ],
      "name": "events",
      "outputs": [
        {
          "internalType": "string",
          "name": "title",
          "type": "string"
        },
        {
          "internalType": "string",
          "name": "venue",
          "type": "string"
        },
        {
          "internalType": "uint256",
          "name": "dateAndTime",
          "type": "uint256"
        },
        {
          "internalType": "uint256",
          "name": "capacity",
          "type": "uint256"
        },
        {
          "internalType": "uint256",
          "name": "ticketsLeft",
          "type": "uint256"
        },
        {
          "internalType": "uint256",
          "name": "priceOfTicket",
          "type": "uint256"
        },
        {
          "internalType": "address",
          "name": "seller",
          "type": "address"
        },
        {
          "internalType": "enum Event.bidState",
          "name": "state",
          "type": "uint8"
        }
      ],
      "payable": false,
      "stateMutability": "view",
      "type": "function"
    },
    {
      "constant": true,
      "inputs": [],
      "name": "numEvents",
      "outputs": [
        {
          "internalType": "uint256",
          "name": "",
          "type": "uint256"
        }
      ],
      "payable": false,
      "stateMutability": "view",
      "type": "function"
    },
    {
      "constant": false,
      "inputs": [
        {
          "internalType": "string",
          "name": "title",
          "type": "string"
        },
        {
          "internalType": "string",
          "name": "venue",
          "type": "string"
        },
        {
          "internalType": "uint256",
          "name": "year",
          "type": "uint256"
        },
        {
          "internalType": "uint256",
          "name": "month",
          "type": "uint256"
        },
        {
          "internalType": "uint256",
          "name": "day",
          "type": "uint256"
        },
        {
          "internalType": "uint256",
          "name": "hour",
          "type": "uint256"
        },
        {
          "internalType": "uint256",
          "name": "minute",
          "type": "uint256"
        },
        {
          "internalType": "uint256",
          "name": "second",
          "type": "uint256"
        },
        {
          "internalType": "uint256",
          "name": "capacity",
          "type": "uint256"
        },
        {
          "internalType": "uint256",
          "name": "ticketsLeft",
          "type": "uint256"
        },
        {
          "internalType": "uint256",
          "name": "priceOfTicket",
          "type": "uint256"
        },
        {
          "internalType": "address",
          "name": "seller",
          "type": "address"
        }
      ],
      "name": "createEvent",
      "outputs": [
        {
          "internalType": "uint256",
          "name": "",
          "type": "uint256"
        }
      ],
      "payable": false,
      "stateMutability": "nonpayable",
      "type": "function"
    },
    {
      "constant": false,
      "inputs": [
        {
          "internalType": "uint256",
          "name": "eventId",
          "type": "uint256"
        },
        {
          "internalType": "uint256",
          "name": "price",
          "type": "uint256"
        },
        {
          "internalType": "enum Ticket.category",
          "name": "cat",
          "type": "uint8"
        },
        {
          "internalType": "uint256",
          "name": "numOfTickets",
          "type": "uint256"
        }
      ],
      "name": "generateEventTickets",
      "outputs": [],
      "payable": false,
      "stateMutability": "nonpayable",
      "type": "function"
    },
    {
      "constant": true,
      "inputs": [
        {
          "internalType": "uint256",
          "name": "eventId",
          "type": "uint256"
        }
      ],
      "name": "getEventTitle",
      "outputs": [
        {
          "internalType": "string",
          "name": "",
          "type": "string"
        }
      ],
      "payable": false,
      "stateMutability": "view",
      "type": "function"
    },
    {
      "constant": true,
      "inputs": [
        {
          "internalType": "uint256",
          "name": "eventId",
          "type": "uint256"
        }
      ],
      "name": "getEventVenue",
      "outputs": [
        {
          "internalType": "string",
          "name": "",
          "type": "string"
        }
      ],
      "payable": false,
      "stateMutability": "view",
      "type": "function"
    },
    {
      "constant": true,
      "inputs": [
        {
          "internalType": "uint256",
          "name": "eventId",
          "type": "uint256"
        }
      ],
      "name": "getEventDateAndTime",
      "outputs": [
        {
          "internalType": "uint256",
          "name": "",
          "type": "uint256"
        },
        {
          "internalType": "uint256",
          "name": "",
          "type": "uint256"
        },
        {
          "internalType": "uint256",
          "name": "",
          "type": "uint256"
        },
        {
          "internalType": "uint256",
          "name": "",
          "type": "uint256"
        },
        {
          "internalType": "uint256",
          "name": "",
          "type": "uint256"
        },
        {
          "internalType": "uint256",
          "name": "",
          "type": "uint256"
        }
      ],
      "payable": false,
      "stateMutability": "view",
      "type": "function"
    },
    {
      "constant": true,
      "inputs": [
        {
          "internalType": "uint256",
          "name": "eventId",
          "type": "uint256"
        }
      ],
      "name": "getEventCapacity",
      "outputs": [
        {
          "internalType": "uint256",
          "name": "",
          "type": "uint256"
        }
      ],
      "payable": false,
      "stateMutability": "view",
      "type": "function"
    },
    {
      "constant": true,
      "inputs": [
        {
          "internalType": "uint256",
          "name": "eventId",
          "type": "uint256"
        }
      ],
      "name": "getEventTicketsLeft",
      "outputs": [
        {
          "internalType": "uint256",
          "name": "",
          "type": "uint256"
        }
      ],
      "payable": false,
      "stateMutability": "view",
      "type": "function"
    },
    {
      "constant": true,
      "inputs": [
        {
          "internalType": "uint256",
          "name": "eventId",
          "type": "uint256"
        }
      ],
      "name": "getEventTicketPrice",
      "outputs": [
        {
          "internalType": "uint256",
          "name": "",
          "type": "uint256"
        }
      ],
      "payable": false,
      "stateMutability": "view",
      "type": "function"
    },
    {
      "constant": true,
      "inputs": [
        {
          "internalType": "uint256",
          "name": "eventId",
          "type": "uint256"
        }
      ],
      "name": "getEventSeller",
      "outputs": [
        {
          "internalType": "address",
          "name": "",
          "type": "address"
        }
      ],
      "payable": false,
      "stateMutability": "view",
      "type": "function"
    },
    {
      "constant": true,
      "inputs": [
        {
          "internalType": "uint256",
          "name": "eventId",
          "type": "uint256"
        }
      ],
      "name": "getEventBidState",
      "outputs": [
        {
          "internalType": "enum Event.bidState",
          "name": "",
          "type": "uint8"
        }
      ],
      "payable": false,
      "stateMutability": "view",
      "type": "function"
    },
    {
      "constant": false,
      "inputs": [
        {
          "internalType": "uint256",
          "name": "eventId",
          "type": "uint256"
        },
        {
          "internalType": "enum Event.bidState",
          "name": "bstate",
          "type": "uint8"
        }
      ],
      "name": "setEventBidState",
      "outputs": [],
      "payable": false,
      "stateMutability": "nonpayable",
      "type": "function"
    }
  ],
  "bytecode": "0x6080604052600060015534801561001557600080fd5b506040516113993803806113998339818101604052602081101561003857600080fd5b8101908080519060200190929190505050806000806101000a81548173ffffffffffffffffffffffffffffffffffffffff021916908373ffffffffffffffffffffffffffffffffffffffff16021790555050611300806100996000396000f3fe608060405234801561001057600080fd5b50600436106100cf5760003560e01c8063836c0ea71161008c578063d9c6b21911610066578063d9c6b2191461068a578063df647178146106c5578063e9c93dbc1461076c578063f4a1ad16146107bb576100cf565b8063836c0ea714610394578063afaddf8f1461043b578063d14b3c6d146104a9576100cf565b8063046cbeec146100d4578063089cade7146101165780630b7914301461017b57806334cf562b146102f25780635788b400146103105780636459d3b414610352575b600080fd5b610100600480360360208110156100ea57600080fd5b810190808035906020019092919050505061080b565b6040518082815260200191505060405180910390f35b6101426004803603602081101561012c57600080fd5b810190808035906020019092919050505061083b565b60405180878152602001868152602001858152602001848152602001838152602001828152602001965050505050505060405180910390f35b6101a76004803603602081101561019157600080fd5b8101908080359060200190929190505050610888565b6040518080602001806020018981526020018881526020018781526020018681526020018573ffffffffffffffffffffffffffffffffffffffff1673ffffffffffffffffffffffffffffffffffffffff16815260200184600181111561020957fe5b60ff16815260200183810383528b818151815260200191508051906020019080838360005b8381101561024957808201518184015260208101905061022e565b50505050905090810190601f1680156102765780820380516001836020036101000a031916815260200191505b5083810382528a818151815260200191508051906020019080838360005b838110156102af578082015181840152602081019050610294565b50505050905090810190601f1680156102dc5780820380516001836020036101000a031916815260200191505b509a505050505050505050505060405180910390f35b6102fa610a2d565b6040518082815260200191505060405180910390f35b61033c6004803603602081101561032657600080fd5b8101908080359060200190929190505050610a33565b6040518082815260200191505060405180910390f35b61037e6004803603602081101561036857600080fd5b8101908080359060200190929190505050610a63565b6040518082815260200191505060405180910390f35b6103c0600480360360208110156103aa57600080fd5b8101908080359060200190929190505050610a93565b6040518080602001828103825283818151815260200191508051906020019080838360005b838110156104005780820151818401526020810190506103e5565b50505050905090810190601f16801561042d5780820380516001836020036101000a031916815260200191505b509250505060405180910390f35b6104676004803603602081101561045157600080fd5b8101908080359060200190929190505050610b5b565b604051808273ffffffffffffffffffffffffffffffffffffffff1673ffffffffffffffffffffffffffffffffffffffff16815260200191505060405180910390f35b61067460048036036101808110156104c057600080fd5b81019080803590602001906401000000008111156104dd57600080fd5b8201836020820111156104ef57600080fd5b8035906020019184600183028401116401000000008311171561051157600080fd5b91908080601f016020809104026020016040519081016040528093929190818152602001838380828437600081840152601f19601f8201169050808301925050505050505091929192908035906020019064010000000081111561057457600080fd5b82018360208201111561058657600080fd5b803590602001918460018302840111640100000000831117156105a857600080fd5b91908080601f016020809104026020016040519081016040528093929190818152602001838380828437600081840152601f19601f820116905080830192505050505050509192919290803590602001909291908035906020019092919080359060200190929190803590602001909291908035906020019092919080359060200190929190803590602001909291908035906020019092919080359060200190929190803573ffffffffffffffffffffffffffffffffffffffff169060200190929190505050610bab565b6040518082815260200191505060405180910390f35b6106c3600480360360408110156106a057600080fd5b8101908080359060200190929190803560ff169060200190929190505050610d3f565b005b6106f1600480360360208110156106db57600080fd5b8101908080359060200190929190505050610d8a565b6040518080602001828103825283818151815260200191508051906020019080838360005b83811015610731578082015181840152602081019050610716565b50505050905090810190601f16801561075e5780820380516001836020036101000a031916815260200191505b509250505060405180910390f35b6107b96004803603608081101561078257600080fd5b810190808035906020019092919080359060200190929190803560ff16906020019092919080359060200190929190505050610e52565b005b6107e7600480360360208110156107d157600080fd5b8101908080359060200190929190505050610f5a565b604051808260018111156107f757fe5b60ff16815260200191505060405180910390f35b600081600154811061081c57600080fd5b6002600084815260200190815260200160002060040154915050919050565b60008060008060008086600154811061085357600080fd5b610872600260008a815260200190815260200160002060020154610f97565b9650965096509650965096505091939550919395565b6002602052806000526040600020600091509050806000018054600181600116156101000203166002900480601f0160208091040260200160405190810160405280929190818152602001828054600181600116156101000203166002900480156109345780601f1061090957610100808354040283529160200191610934565b820191906000526020600020905b81548152906001019060200180831161091757829003601f168201915b505050505090806001018054600181600116156101000203166002900480601f0160208091040260200160405190810160405280929190818152602001828054600181600116156101000203166002900480156109d25780601f106109a7576101008083540402835291602001916109d2565b820191906000526020600020905b8154815290600101906020018083116109b557829003601f168201915b5050505050908060020154908060030154908060040154908060050154908060060160009054906101000a900473ffffffffffffffffffffffffffffffffffffffff16908060060160149054906101000a900460ff16905088565b60015481565b6000816001548110610a4457600080fd5b6002600084815260200190815260200160002060030154915050919050565b6000816001548110610a7457600080fd5b6002600084815260200190815260200160002060050154915050919050565b6060816001548110610aa457600080fd5b600260008481526020019081526020016000206001018054600181600116156101000203166002900480601f016020809104026020016040519081016040528092919081815260200182805460018160011615610100020316600290048015610b4e5780601f10610b2357610100808354040283529160200191610b4e565b820191906000526020600020905b815481529060010190602001808311610b3157829003601f168201915b5050505050915050919050565b6000816001548110610b6c57600080fd5b6002600084815260200190815260200160002060060160009054906101000a900473ffffffffffffffffffffffffffffffffffffffff16915050919050565b6000610bb56111c0565b6040518061010001604052808f81526020018e8152602001610bdb8e8e8e8e8e8e611012565b81526020018781526020018681526020018581526020018473ffffffffffffffffffffffffffffffffffffffff168152602001600180811115610c1a57fe5b815250905060006001600081548092919060010191905055905081600260008381526020019081526020016000206000820151816000019080519060200190610c64929190611226565b506020820151816001019080519060200190610c81929190611226565b5060408201518160020155606082015181600301556080820151816004015560a0820151816005015560c08201518160060160006101000a81548173ffffffffffffffffffffffffffffffffffffffff021916908373ffffffffffffffffffffffffffffffffffffffff16021790555060e08201518160060160146101000a81548160ff02191690836001811115610d1557fe5b0217905550905050610d2a8186600189610e52565b80925050509c9b505050505050505050505050565b816001548110610d4e57600080fd5b816002600085815260200190815260200160002060060160146101000a81548160ff02191690836001811115610d8057fe5b0217905550505050565b6060816001548110610d9b57600080fd5b600260008481526020019081526020016000206000018054600181600116156101000203166002900480601f016020809104026020016040519081016040528092919081815260200182805460018160011615610100020316600290048015610e455780601f10610e1a57610100808354040283529160200191610e45565b820191906000526020600020905b815481529060010190602001808311610e2857829003601f168201915b5050505050915050919050565b836001548110610e6157600080fd5b60008090505b82811015610f52576000809054906101000a900473ffffffffffffffffffffffffffffffffffffffff1673ffffffffffffffffffffffffffffffffffffffff1663b48630c2878787856040518563ffffffff1660e01b815260040180858152602001848152602001836002811115610edb57fe5b60ff168152602001828152602001945050505050602060405180830381600087803b158015610f0957600080fd5b505af1158015610f1d573d6000803e3d6000fd5b505050506040513d6020811015610f3357600080fd5b8101908080519060200190929190505050508080600101915050610e67565b505050505050565b6000816001548110610f6b57600080fd5b6002600084815260200190815260200160002060060160149054906101000a900460ff16915050919050565b600080600080600080610fb5620151808881610faf57fe5b0461103d565b8096508197508298505050506000620151808881610fcf57fe5b069050610e108181610fdd57fe5b049350610e108181610feb57fe5b069050603c8181610ff857fe5b049250603c818161100557fe5b0691505091939550919395565b600081603c8402610e1086026201518061102d8b8b8b611111565b0201010190509695505050505050565b600080600080849050600062253d8c62010bd98301019050600062023ab1826004028161106657fe5b059050600460038262023ab102018161107b57fe5b0582039150600062164b0960018401610fa0028161109557fe5b059050601f6004826105b502816110a857fe5b058403019250600061098f84605002816110be57fe5b059050600060508261098f02816110d157fe5b0585039050600b82816110e057fe5b05945084600c0260028301039150848360318603606402010192508298508197508096505050505050509193909250565b60006107b284101561112257600080fd5b600084905060008490506000849050600062253d8c60046064600c600e87038161114857fe5b056113248801018161115657fe5b056003028161116157fe5b05600c80600c600e88038161117257fe5b0502600287030361016f028161118457fe5b056004600c600e88038161119457fe5b056112c08901016105b502816111a657fe5b05617d4b8603010103039050809450505050509392505050565b604051806101000160405280606081526020016060815260200160008152602001600081526020016000815260200160008152602001600073ffffffffffffffffffffffffffffffffffffffff1681526020016000600181111561122057fe5b81525090565b828054600181600116156101000203166002900490600052602060002090601f016020900481019282601f1061126757805160ff1916838001178555611295565b82800160010185558215611295579182015b82811115611294578251825591602001919060010190611279565b5b5090506112a291906112a6565b5090565b6112c891905b808211156112c45760008160009055506001016112ac565b5090565b9056fea265627a7a72315820393506bd68f07964f5cd42aeba140e5ef6105db08e5ca4e8ebd74c2776c0b2fb64736f6c63430005110032",
  "source": "pragma solidity ^0.5.0;\r\n\r\nimport \"./DateTime.sol\";\r\nimport \"./Ticket.sol\";\r\n\r\ncontract Event {\r\n\r\n    Ticket ticketContract;\r\n\r\n    constructor(Ticket ticketAddress) public {\r\n        ticketContract = ticketAddress;\r\n    }\r\n\r\n    enum bidState { open, close }\r\n\r\n    struct eventObj {\r\n        string title;\r\n        string venue;\r\n        uint256 dateAndTime;\r\n        uint256 capacity;\r\n        uint256 ticketsLeft;\r\n        uint256 priceOfTicket;\r\n        address seller;\r\n        bidState state;\r\n    }\r\n\r\n    uint256 public numEvents = 0;\r\n    mapping(uint256 => eventObj) public events;\r\n\r\n    function createEvent(\r\n        string memory title,\r\n        string memory venue,\r\n        uint256 year, uint256 month, uint256 day, uint256 hour, uint256 minute, uint256 second,\r\n        uint256 capacity,\r\n        uint256 ticketsLeft,\r\n        uint256 priceOfTicket,\r\n        address seller\r\n    ) public returns (uint256) {\r\n        // require creation fee in terms of tokens?\r\n        // require(msg.sender == platformOwner/seller?)\r\n\r\n        // require input validation for parameters Eg. datetime\r\n\r\n        eventObj memory newEvent = eventObj(\r\n            title,\r\n            venue,\r\n            DateTime.timestampFromDateTime(year, month, day, hour, minute, second),\r\n            capacity,\r\n            ticketsLeft,\r\n            priceOfTicket,\r\n            seller,\r\n            bidState.close\r\n        );\r\n\r\n        uint256 newEventId = numEvents++;\r\n        events[newEventId] = newEvent;\r\n        // transfer creation fee?\r\n\r\n        // Generate Tickets\r\n        generateEventTickets(newEventId, priceOfTicket, Ticket.category.standard, ticketsLeft);\r\n\r\n        return newEventId;\r\n    }\r\n\r\n    modifier validEventId(uint256 eventId) {\r\n        require(eventId < numEvents);\r\n        _;\r\n    }\r\n\r\n    function generateEventTickets(uint256 eventId, uint256 price, Ticket.category cat, uint256 numOfTickets) public validEventId(eventId) {\r\n        for (uint256 i = 0; i < numOfTickets; i++) {\r\n            ticketContract.add(eventId, price, cat, i);\r\n        }\r\n    } \r\n\r\n    function getEventTitle(uint256 eventId) public view validEventId(eventId) returns (string memory) {\r\n        return events[eventId].title;\r\n    }\r\n\r\n    function getEventVenue(uint256 eventId) public view validEventId(eventId) returns (string memory) {\r\n        return events[eventId].venue;\r\n    }\r\n\r\n    function getEventDateAndTime(uint256 eventId) public view validEventId(eventId) returns (uint256, uint256, uint256, uint256, uint256, uint256) {\r\n        return DateTime.timestampToDateTime(events[eventId].dateAndTime);\r\n    }\r\n\r\n    function getEventCapacity(uint256 eventId) public view validEventId(eventId) returns (uint256) {\r\n        return events[eventId].capacity;\r\n    }\r\n\r\n    function getEventTicketsLeft(uint256 eventId) public view validEventId(eventId) returns (uint256) {\r\n        return events[eventId].ticketsLeft;\r\n    }\r\n\r\n    function getEventTicketPrice(uint256 eventId) public view validEventId(eventId) returns (uint256) {\r\n        return events[eventId].priceOfTicket;\r\n    }\r\n    \r\n    function getEventSeller(uint256 eventId) public view validEventId(eventId) returns (address) {\r\n        return events[eventId].seller;\r\n    }\r\n\r\n    function getEventBidState(uint256 eventId) public view validEventId(eventId) returns (bidState) {\r\n        return events[eventId].state;\r\n    }\r\n\r\n    function setEventBidState(uint256 eventId, bidState bstate) public validEventId(eventId) {\r\n        events[eventId].state = bstate;\r\n    }\r\n}\r\n\r\n",
  "sourcePath": "C:\\Users\\remus\\Desktop\\3.2\\IS4302\\Project\\contracts\\Event.sol",
  "compiler": {
    "name": "solc",
    "version": "0.5.17+commit.d19bba13.Emscripten.clang"
  },
  "schemaVersion": "3.4.11",
  "updatedAt": "2023-03-21T08:15:58.213Z",
  "devdoc": {
    "methods": {}
  },
  "userdoc": {
    "methods": {}
  }
}