{
  "contractName": "Platform",
  "abi": [
    {
      "inputs": [
        {
          "internalType": "contract Account",
          "name": "accountAddr",
          "type": "address"
        },
        {
          "internalType": "contract EventToken",
          "name": "eventTokenAddr",
          "type": "address"
        },
        {
          "internalType": "contract Event",
          "name": "eventAddr",
          "type": "address"
        }
      ],
      "payable": false,
      "stateMutability": "nonpayable",
      "type": "constructor"
    },
    {
      "anonymous": false,
      "inputs": [
        {
          "indexed": false,
          "internalType": "uint256",
          "name": "eventId",
          "type": "uint256"
        }
      ],
      "name": "BidClosed",
      "type": "event"
    },
    {
      "anonymous": false,
      "inputs": [
        {
          "indexed": false,
          "internalType": "uint256",
          "name": "eventId",
          "type": "uint256"
        }
      ],
      "name": "BidCommenced",
      "type": "event"
    },
    {
      "anonymous": false,
      "inputs": [
        {
          "indexed": false,
          "internalType": "uint256",
          "name": "eventId",
          "type": "uint256"
        },
        {
          "indexed": false,
          "internalType": "address",
          "name": "buyer",
          "type": "address"
        },
        {
          "indexed": false,
          "internalType": "uint256",
          "name": "tokenBid",
          "type": "uint256"
        }
      ],
      "name": "BidPlaced",
      "type": "event"
    },
    {
      "anonymous": false,
      "inputs": [
        {
          "indexed": false,
          "internalType": "address",
          "name": "to",
          "type": "address"
        },
        {
          "indexed": false,
          "internalType": "uint256",
          "name": "amount",
          "type": "uint256"
        }
      ],
      "name": "TransferToBuyerSuccessful",
      "type": "event"
    },
    {
      "constant": true,
      "inputs": [
        {
          "internalType": "address",
          "name": "",
          "type": "address"
        },
        {
          "internalType": "uint256",
          "name": "",
          "type": "uint256"
        }
      ],
      "name": "addressBiddings",
      "outputs": [
        {
          "internalType": "uint256",
          "name": "quantity",
          "type": "uint256"
        },
        {
          "internalType": "uint256",
          "name": "pricePerTicket",
          "type": "uint256"
        },
        {
          "internalType": "uint256",
          "name": "tokenPerTicket",
          "type": "uint256"
        },
        {
          "internalType": "uint256",
          "name": "firstIndexForEventBiddings",
          "type": "uint256"
        }
      ],
      "payable": false,
      "stateMutability": "view",
      "type": "function"
    },
    {
      "constant": true,
      "inputs": [
        {
          "internalType": "uint256",
          "name": "",
          "type": "uint256"
        },
        {
          "internalType": "uint256",
          "name": "",
          "type": "uint256"
        },
        {
          "internalType": "uint256",
          "name": "",
          "type": "uint256"
        }
      ],
      "name": "eventBiddings",
      "outputs": [
        {
          "internalType": "address",
          "name": "",
          "type": "address"
        }
      ],
      "payable": false,
      "stateMutability": "view",
      "type": "function"
    },
    {
      "constant": true,
      "inputs": [
        {
          "internalType": "uint256",
          "name": "",
          "type": "uint256"
        }
      ],
      "name": "eventTopBid",
      "outputs": [
        {
          "internalType": "uint256",
          "name": "",
          "type": "uint256"
        }
      ],
      "payable": false,
      "stateMutability": "view",
      "type": "function"
    },
    {
      "constant": false,
      "inputs": [
        {
          "internalType": "uint256",
          "name": "eventId",
          "type": "uint256"
        }
      ],
      "name": "commenceBidding",
      "outputs": [],
      "payable": false,
      "stateMutability": "nonpayable",
      "type": "function"
    },
    {
      "constant": false,
      "inputs": [
        {
          "internalType": "uint256",
          "name": "eventId",
          "type": "uint256"
        },
        {
          "internalType": "uint8",
          "name": "quantity",
          "type": "uint8"
        },
        {
          "internalType": "uint256",
          "name": "tokenBid",
          "type": "uint256"
        }
      ],
      "name": "placeBid",
      "outputs": [],
      "payable": true,
      "stateMutability": "payable",
      "type": "function"
    },
    {
      "constant": false,
      "inputs": [
        {
          "internalType": "uint256",
          "name": "eventId",
          "type": "uint256"
        }
      ],
      "name": "closeBidding",
      "outputs": [],
      "payable": false,
      "stateMutability": "nonpayable",
      "type": "function"
    },
    {
      "constant": false,
      "inputs": [],
      "name": "returnBiddings",
      "outputs": [],
      "payable": false,
      "stateMutability": "nonpayable",
      "type": "function"
    },
    {
      "constant": true,
      "inputs": [
        {
          "internalType": "uint256",
          "name": "eventId",
          "type": "uint256"
        }
      ],
      "name": "viewTicketsLeft",
      "outputs": [
        {
          "internalType": "uint256",
          "name": "",
          "type": "uint256"
        }
      ],
      "payable": false,
      "stateMutability": "view",
      "type": "function"
    },
    {
      "constant": false,
      "inputs": [
        {
          "internalType": "uint256",
          "name": "eventId",
          "type": "uint256"
        },
        {
          "internalType": "uint8",
          "name": "quantity",
          "type": "uint8"
        },
        {
          "internalType": "uint256",
          "name": "price",
          "type": "uint256"
        }
      ],
      "name": "buyTickets",
      "outputs": [],
      "payable": true,
      "stateMutability": "payable",
      "type": "function"
    }
  ],
  "bytecode": "0x608060405234801561001057600080fd5b50604051611bfc380380611bfc8339818101604052606081101561003357600080fd5b81019080805190602001909291908051906020019092919080519060200190929190505050826000806101000a81548173ffffffffffffffffffffffffffffffffffffffff021916908373ffffffffffffffffffffffffffffffffffffffff16021790555081600260006101000a81548173ffffffffffffffffffffffffffffffffffffffff021916908373ffffffffffffffffffffffffffffffffffffffff16021790555080600360006101000a81548173ffffffffffffffffffffffffffffffffffffffff021916908373ffffffffffffffffffffffffffffffffffffffff160217905550505050611ad08061012c6000396000f3fe6080604052600436106100865760003560e01c8063750a9b3b11610059578063750a9b3b146101b0578063773c33ed146101eb5780637c1267a614610230578063aa2bb23214610275578063d6375d93146102c457610086565b80630bec24a61461008b5780634138915f1461010f57806344c7cb71146101265780635b1194b214610175575b600080fd5b34801561009757600080fd5b506100e4600480360360408110156100ae57600080fd5b81019080803573ffffffffffffffffffffffffffffffffffffffff16906020019092919080359060200190929190505050610353565b6040518085815260200184815260200183815260200182815260200194505050505060405180910390f35b34801561011b57600080fd5b50610124610390565b005b34801561013257600080fd5b5061015f6004803603602081101561014957600080fd5b8101908080359060200190929190505050610392565b6040518082815260200191505060405180910390f35b34801561018157600080fd5b506101ae6004803603602081101561019857600080fd5b81019080803590602001909291905050506103aa565b005b3480156101bc57600080fd5b506101e9600480360360208110156101d357600080fd5b8101908080359060200190929190505050610931565b005b61022e6004803603606081101561020157600080fd5b8101908080359060200190929190803560ff16906020019092919080359060200190929190505050610c95565b005b6102736004803603606081101561024657600080fd5b8101908080359060200190929190803560ff16906020019092919080359060200190929190505050610fac565b005b34801561028157600080fd5b506102ae6004803603602081101561029857600080fd5b81019080803590602001909291905050506118ea565b6040518082815260200191505060405180910390f35b3480156102d057600080fd5b50610311600480360360608110156102e757600080fd5b810190808035906020019092919080359060200190929190803590602001909291905050506119a1565b604051808273ffffffffffffffffffffffffffffffffffffffff1673ffffffffffffffffffffffffffffffffffffffff16815260200191505060405180910390f35b6006602052816000526040600020602052806000526040600020600091509150508060000154908060010154908060020154908060030154905084565b565b60046020528060005260406000206000915090505481565b600360009054906101000a900473ffffffffffffffffffffffffffffffffffffffff1673ffffffffffffffffffffffffffffffffffffffff1663afaddf8f826040518263ffffffff1660e01b81526004018082815260200191505060206040518083038186803b15801561041d57600080fd5b505afa158015610431573d6000803e3d6000fd5b505050506040513d602081101561044757600080fd5b810190808051906020019092919050505073ffffffffffffffffffffffffffffffffffffffff163373ffffffffffffffffffffffffffffffffffffffff16146104f8576040517f08c379a000000000000000000000000000000000000000000000000000000000815260040180806020018281038252601d8152602001807f4f6e6c792073656c6c65722063616e20636c6f73652062696464696e6700000081525060200191505060405180910390fd5b6000600181111561050557fe5b600360009054906101000a900473ffffffffffffffffffffffffffffffffffffffff1673ffffffffffffffffffffffffffffffffffffffff1663f4a1ad16836040518263ffffffff1660e01b81526004018082815260200191505060206040518083038186803b15801561057857600080fd5b505afa15801561058c573d6000803e3d6000fd5b505050506040513d60208110156105a257600080fd5b810190808051906020019092919050505060018111156105be57fe5b14610631576040517f08c379a000000000000000000000000000000000000000000000000000000000815260040180806020018281038252601a8152602001807f4576656e74206e6f74206f70656e20666f722062696464696e6700000000000081525060200191505060405180910390fd5b6000600460008381526020019081526020016000205490506000600360009054906101000a900473ffffffffffffffffffffffffffffffffffffffff1673ffffffffffffffffffffffffffffffffffffffff1663046cbeec846040518263ffffffff1660e01b81526004018082815260200191505060206040518083038186803b1580156106be57600080fd5b505afa1580156106d2573d6000803e3d6000fd5b505050506040513d60208110156106e857600080fd5b810190808051906020019092919050505090505b600081146108515760606005600085815260200190815260200160002060008481526020019081526020016000208054806020026020016040519081016040528092919081815260200182805480156107aa57602002820191906000526020600020905b8160009054906101000a900473ffffffffffffffffffffffffffffffffffffffff1673ffffffffffffffffffffffffffffffffffffffff1681526020019060010190808311610760575b5050505050905060008090505b815181101561083257600073ffffffffffffffffffffffffffffffffffffffff168282815181106107e457fe5b602002602001015173ffffffffffffffffffffffffffffffffffffffff16141561080d57610825565b828060019003935050600083141561082457610832565b5b80806001019150506107b7565b5060008314156108425750610851565b828060019003935050506106fc565b600360009054906101000a900473ffffffffffffffffffffffffffffffffffffffff1673ffffffffffffffffffffffffffffffffffffffff1663d9c6b2198460016040518363ffffffff1660e01b8152600401808381526020018260018111156108b757fe5b60ff16815260200192505050600060405180830381600087803b1580156108dd57600080fd5b505af11580156108f1573d6000803e3d6000fd5b505050507f6763f632a6aff2fa61f0d00f2f5928247e48bbab083af597c763beb7a7074ac1836040518082815260200191505060405180910390a1505050565b600360009054906101000a900473ffffffffffffffffffffffffffffffffffffffff1673ffffffffffffffffffffffffffffffffffffffff1663afaddf8f826040518263ffffffff1660e01b81526004018082815260200191505060206040518083038186803b1580156109a457600080fd5b505afa1580156109b8573d6000803e3d6000fd5b505050506040513d60208110156109ce57600080fd5b810190808051906020019092919050505073ffffffffffffffffffffffffffffffffffffffff163373ffffffffffffffffffffffffffffffffffffffff1614610a7f576040517f08c379a00000000000000000000000000000000000000000000000000000000081526004018080602001828103825260208152602001807f4f6e6c792073656c6c65722063616e20636f6d6d656e63652062696464696e6781525060200191505060405180910390fd5b600180811115610a8b57fe5b600360009054906101000a900473ffffffffffffffffffffffffffffffffffffffff1673ffffffffffffffffffffffffffffffffffffffff1663f4a1ad16836040518263ffffffff1660e01b81526004018082815260200191505060206040518083038186803b158015610afe57600080fd5b505afa158015610b12573d6000803e3d6000fd5b505050506040513d6020811015610b2857600080fd5b81019080805190602001909291905050506001811115610b4457fe5b14610bb7576040517f08c379a000000000000000000000000000000000000000000000000000000000815260040180806020018281038252601e8152602001807f4576656e7420616c7265616479206f70656e20666f722062696464696e67000081525060200191505060405180910390fd5b600360009054906101000a900473ffffffffffffffffffffffffffffffffffffffff1673ffffffffffffffffffffffffffffffffffffffff1663d9c6b2198260006040518363ffffffff1660e01b815260040180838152602001826001811115610c1d57fe5b60ff16815260200192505050600060405180830381600087803b158015610c4357600080fd5b505af1158015610c57573d6000803e3d6000fd5b505050507f06fe11e50ef598e7d082666f5ab23b04096ea52b6b458ff241ba708c0e66bac9816040518082815260200191505060405180910390a150565b6000809054906101000a900473ffffffffffffffffffffffffffffffffffffffff1673ffffffffffffffffffffffffffffffffffffffff166390f9b6786040518163ffffffff1660e01b815260040160206040518083038186803b158015610cfc57600080fd5b505afa158015610d10573d6000803e3d6000fd5b505050506040513d6020811015610d2657600080fd5b81019080805190602001909291905050506001811115610d4257fe5b6000809054906101000a900473ffffffffffffffffffffffffffffffffffffffff1673ffffffffffffffffffffffffffffffffffffffff16639a6c8951336040518263ffffffff1660e01b8152600401808273ffffffffffffffffffffffffffffffffffffffff1673ffffffffffffffffffffffffffffffffffffffff16815260200191505060206040518083038186803b158015610de057600080fd5b505afa158015610df4573d6000803e3d6000fd5b505050506040513d6020811015610e0a57600080fd5b81019080805190602001909291905050506001811115610e2657fe5b14610e3057600080fd5b60048260ff161115610e8d576040517f08c379a000000000000000000000000000000000000000000000000000000000815260040180806020018281038252602f815260200180611a22602f913960400191505060405180910390fd5b60008260ff168202905080341015610ef0576040517f08c379a0000000000000000000000000000000000000000000000000000000008152600401808060200182810382526029815260200180611a736029913960400191505060405180910390fd5b3373ffffffffffffffffffffffffffffffffffffffff166108fc8234039081150290604051600060405180830381858888f19350505050158015610f38573d6000803e3d6000fd5b507f85f663dec9a920059b20245b779d5040c902415f43beccbd6fba5e69ca2abf4033823403604051808373ffffffffffffffffffffffffffffffffffffffff1673ffffffffffffffffffffffffffffffffffffffff1681526020018281526020019250505060405180910390a150505050565b6000809054906101000a900473ffffffffffffffffffffffffffffffffffffffff1673ffffffffffffffffffffffffffffffffffffffff166390f9b6786040518163ffffffff1660e01b815260040160206040518083038186803b15801561101357600080fd5b505afa158015611027573d6000803e3d6000fd5b505050506040513d602081101561103d57600080fd5b8101908080519060200190929190505050600181111561105957fe5b6000809054906101000a900473ffffffffffffffffffffffffffffffffffffffff1673ffffffffffffffffffffffffffffffffffffffff16639a6c8951336040518263ffffffff1660e01b8152600401808273ffffffffffffffffffffffffffffffffffffffff1673ffffffffffffffffffffffffffffffffffffffff16815260200191505060206040518083038186803b1580156110f757600080fd5b505afa15801561110b573d6000803e3d6000fd5b505050506040513d602081101561112157600080fd5b8101908080519060200190929190505050600181111561113d57fe5b1461114757600080fd5b6000600181111561115457fe5b600360009054906101000a900473ffffffffffffffffffffffffffffffffffffffff1673ffffffffffffffffffffffffffffffffffffffff1663f4a1ad16856040518263ffffffff1660e01b81526004018082815260200191505060206040518083038186803b1580156111c757600080fd5b505afa1580156111db573d6000803e3d6000fd5b505050506040513d60208110156111f157600080fd5b8101908080519060200190929190505050600181111561120d57fe5b14611280576040517f08c379a000000000000000000000000000000000000000000000000000000000815260040180806020018281038252601a8152602001807f4576656e74206e6f74206f70656e20666f722062696464696e6700000000000081525060200191505060405180910390fd5b60048260ff1611156112dd576040517f08c379a000000000000000000000000000000000000000000000000000000000815260040180806020018281038252602f815260200180611a22602f913960400191505060405180910390fd5b8160ff16600360009054906101000a900473ffffffffffffffffffffffffffffffffffffffff1673ffffffffffffffffffffffffffffffffffffffff16636459d3b4856040518263ffffffff1660e01b81526004018082815260200191505060206040518083038186803b15801561135457600080fd5b505afa158015611368573d6000803e3d6000fd5b505050506040513d602081101561137e57600080fd5b810190808051906020019092919050505002341015611405576040517f08c379a000000000000000000000000000000000000000000000000000000000815260040180806020018281038252601a8152602001807f42757965722068617320696e73756666696369656e742045544800000000000081525060200191505060405180910390fd5b8160ff168102600260009054906101000a900473ffffffffffffffffffffffffffffffffffffffff1673ffffffffffffffffffffffffffffffffffffffff1663575a7c63336040518263ffffffff1660e01b8152600401808273ffffffffffffffffffffffffffffffffffffffff1673ffffffffffffffffffffffffffffffffffffffff16815260200191505060206040518083038186803b1580156114aa57600080fd5b505afa1580156114be573d6000803e3d6000fd5b505050506040513d60208110156114d457600080fd5b8101908080519060200190929190505050101561153c576040517f08c379a0000000000000000000000000000000000000000000000000000000008152600401808060200182810382526022815260200180611a516022913960400191505060405180910390fd5b600080600090505b8360ff168160ff161015611621576005600086815260200190815260200160002060008481526020019081526020016000203390806001815401808255809150509060018203906000526020600020016000909192909190916101000a81548173ffffffffffffffffffffffffffffffffffffffff021916908373ffffffffffffffffffffffffffffffffffffffff1602179055505060008160ff161415611614576001600560008781526020019081526020016000206000858152602001908152602001600020805490500391505b8080600101915050611544565b506000600360009054906101000a900473ffffffffffffffffffffffffffffffffffffffff1673ffffffffffffffffffffffffffffffffffffffff16636459d3b4866040518263ffffffff1660e01b81526004018082815260200191505060206040518083038186803b15801561169757600080fd5b505afa1580156116ab573d6000803e3d6000fd5b505050506040513d60208110156116c157600080fd5b81019080805190602001909291905050508460ff160290506000838560ff160290506116eb6119f9565b60405180608001604052808760ff168152602001600360009054906101000a900473ffffffffffffffffffffffffffffffffffffffff1673ffffffffffffffffffffffffffffffffffffffff16636459d3b48a6040518263ffffffff1660e01b81526004018082815260200191505060206040518083038186803b15801561177257600080fd5b505afa158015611786573d6000803e3d6000fd5b505050506040513d602081101561179c57600080fd5b8101908080519060200190929190505050815260200186815260200185815250905080600660003373ffffffffffffffffffffffffffffffffffffffff1673ffffffffffffffffffffffffffffffffffffffff168152602001908152602001600020600089815260200190815260200160002060008201518160000155602082015181600101556040820151816002015560608201518160030155905050600460008881526020019081526020016000205485111561186e578460046000898152602001908152602001600020819055505b7f0e54eff26401bf69b81b26f60bd85ef47f5d85275c1d268d84f68d6897431c47873387604051808481526020018373ffffffffffffffffffffffffffffffffffffffff1673ffffffffffffffffffffffffffffffffffffffff168152602001828152602001935050505060405180910390a150505050505050565b6000600360009054906101000a900473ffffffffffffffffffffffffffffffffffffffff1673ffffffffffffffffffffffffffffffffffffffff1663046cbeec836040518263ffffffff1660e01b81526004018082815260200191505060206040518083038186803b15801561195f57600080fd5b505afa158015611973573d6000803e3d6000fd5b505050506040513d602081101561198957600080fd5b81019080805190602001909291905050509050919050565b600560205282600052604060002060205281600052604060002081815481106119c657fe5b90600052602060002001600092509250509054906101000a900473ffffffffffffffffffffffffffffffffffffffff1681565b604051806080016040528060008152602001600081526020016000815260200160008152509056fe596f7520686176652070617373656420746865206d6178696d756d2062756c6b207075726368617365206c696d697442757965722068617320696e73756666696369656e74204576656e74546f6b656e7342757965722068617320696e73756666696369656e742045544820746f20627579207469636b657473a265627a7a723158204cbb74271dfa8cb97d3bbadad19e08be6131e20870991fe19f717d43d69f438264736f6c63430005110032",
  "source": "pragma solidity ^0.5.0;\r\n\r\nimport \"./Account.sol\";\r\nimport \"./Seller.sol\"; \r\nimport \"./Event.sol\";\r\nimport \"./Ticket.sol\";\r\nimport \"./EventToken.sol\";\r\n\r\ncontract Platform {\r\n    Account accountContract;\r\n    Seller sellerContract;\r\n    EventToken eventTokenContract;\r\n    Event eventContract;\r\n\r\n    event BidCommenced (uint256 eventId);\r\n    event BidPlaced (uint256 eventId, address buyer, uint256 tokenBid);\r\n    event BidClosed (uint256 eventId);\r\n    event TransferToBuyerSuccessful(address to, uint256 amount);\r\n\r\n    // Platform can only exist if other contracts are created first\r\n    constructor(Account accountAddr, EventToken eventTokenAddr, Event eventAddr) public {\r\n        accountContract = accountAddr;\r\n        eventTokenContract = eventTokenAddr;\r\n        eventContract = eventAddr;\r\n    }\r\n\r\n    struct bidInfo {\r\n        uint256 quantity;\r\n        uint256 pricePerTicket;\r\n        uint256 tokenPerTicket;\r\n        uint256 firstIndexForEventBiddings; // For ease of updating bid\r\n    }\r\n\r\n    mapping(uint256 => uint256) public eventTopBid; // eventId => topBid\r\n    mapping(uint256 => mapping(uint256 => address[])) public eventBiddings; // eventId => (tokenBid => addressArray) \r\n    mapping(address => mapping(uint256 => bidInfo)) public addressBiddings; // address => (eventId => bidInfo)\r\n\r\n    /* Ensure caller is a buyer */\r\n    modifier isBuyer() {\r\n        require(accountContract.viewAccountState(msg.sender) == accountContract.getUnverifiedStatus());\r\n        _;\r\n    }\r\n\r\n    // Commence bidding for event\r\n    function commenceBidding(uint256 eventId) public {\r\n        require(msg.sender == eventContract.getEventSeller(eventId), \"Only seller can commence bidding\");\r\n        require(eventContract.getEventBidState(eventId) == Event.bidState.close, \"Event already open for bidding\");\r\n\r\n        eventContract.setEventBidState(eventId, Event.bidState.open);\r\n        emit BidCommenced(eventId);\r\n    }\r\n\r\n    // Bid for ticket\r\n    function placeBid(uint256 eventId, uint8 quantity, uint256 tokenBid) public payable isBuyer() {\r\n        require(eventContract.getEventBidState(eventId) == Event.bidState.open, \"Event not open for bidding\");\r\n        require(quantity <= 4, \"You have passed the maximum bulk purchase limit\");\r\n        require(msg.value >= eventContract.getEventTicketPrice(eventId) * quantity, \"Buyer has insufficient ETH\");\r\n        require(eventTokenContract.checkEventTokenOf(msg.sender) >= tokenBid * quantity, \"Buyer has insufficient EventTokens\");\r\n\r\n        //TODO: Transfer tokenBid & ETH to contract\r\n        //eventTokenContract.transferFrom(msg.sender, address(this), tokenBid * quantity);\r\n\r\n    \r\n        // Record eventBiddings\r\n        uint256 firstIdx;\r\n        for (uint8 i = 0; i < quantity; i++) {\r\n            eventBiddings[eventId][tokenBid].push(msg.sender);\r\n            if (i == 0) {\r\n                firstIdx = eventBiddings[eventId][tokenBid].length - 1;\r\n            }\r\n        }\r\n\r\n        // Record bidInfo for ease of future refund / update \r\n        uint256 totalPrice = quantity * eventContract.getEventTicketPrice(eventId);\r\n        uint256 totalTokenBid = quantity * tokenBid;\r\n        bidInfo memory newBidInfo = bidInfo(quantity, eventContract.getEventTicketPrice(eventId), tokenBid, firstIdx);\r\n        addressBiddings[msg.sender][eventId] = newBidInfo;\r\n        \r\n        // Update top bid\r\n        if (tokenBid > eventTopBid[eventId]) {\r\n            eventTopBid[eventId] = tokenBid;\r\n        }\r\n        emit BidPlaced(eventId, msg.sender, tokenBid);\r\n    }\r\n\r\n    // Close bidding and transfer tickets to top bidders\r\n    function closeBidding(uint256 eventId) public {\r\n        require(msg.sender == eventContract.getEventSeller(eventId), \"Only seller can close bidding\");\r\n        require(eventContract.getEventBidState(eventId) == Event.bidState.open, \"Event not open for bidding\");\r\n\r\n        uint256 bidAmount = eventTopBid[eventId];\r\n        uint256 ticketsLeft = eventContract.getEventTicketsLeft(eventId);\r\n\r\n        // Tickets given out starting from top bidders\r\n        while (ticketsLeft != 0) {\r\n            address[] memory bidderList = eventBiddings[eventId][bidAmount];\r\n            for (uint256 i = 0; i < bidderList.length; i++) {\r\n                if (bidderList[i] == address(0)) continue; \r\n\r\n                // TODO: transfer ticket to address @ bidderList[i]\r\n                ticketsLeft--;\r\n\r\n                if (ticketsLeft == 0) break;\r\n            }\r\n            if (bidAmount == 0) break;\r\n            bidAmount--;\r\n        }\r\n\r\n        // TODO: Return unsuccessful bidders\r\n        // returnBiddings()\r\n        eventContract.setEventBidState(eventId, Event.bidState.close);\r\n        emit BidClosed(eventId);\r\n    }   \r\n\r\n    // Return unsuccessful bidders their corresponding ETH and tokens\r\n    function returnBiddings() public {\r\n\r\n    }\r\n\r\n    /* Viewing the number of tickets left for an event */\r\n    function viewTicketsLeft(uint256 eventId) public view returns (uint256) {\r\n        return eventContract.getEventTicketsLeft(eventId);\r\n    }\r\n\r\n    /* Buyers buying tickets for an event */\r\n    function buyTickets(uint256 eventId, uint8 quantity, uint256 price) public payable isBuyer() {\r\n        require(quantity <= 4, \"You have passed the maximum bulk purchase limit\");\r\n\r\n        /* Require eventid is a listed event */\r\n\r\n        uint256 totalPrice = price * quantity;\r\n        require(msg.value >= totalPrice, \"Buyer has insufficient ETH to buy tickets\");\r\n\r\n        /* Map ticket id to an account */\r\n        msg.sender.transfer(msg.value - totalPrice); // transfer remaining back to buyer\r\n        emit TransferToBuyerSuccessful(msg.sender, msg.value - totalPrice);\r\n    }\r\n\r\n\r\n\r\n}",
  "sourcePath": "C:\\Users\\remus\\Desktop\\3.2\\IS4302\\Project\\contracts\\Platform.sol",
  "compiler": {
    "name": "solc",
    "version": "0.5.17+commit.d19bba13.Emscripten.clang"
  },
  "schemaVersion": "3.4.11",
  "updatedAt": "2023-03-21T08:15:58.221Z",
  "devdoc": {
    "methods": {}
  },
  "userdoc": {
    "methods": {}
  }
}