{
  "contractName": "Seller",
  "abi": [
    {
      "inputs": [
        {
          "internalType": "contract Account",
          "name": "accountAddr",
          "type": "address"
        }
      ],
      "payable": false,
      "stateMutability": "nonpayable",
      "type": "constructor"
    },
    {
      "constant": false,
      "inputs": [
        {
          "internalType": "uint256",
          "name": "eventId",
          "type": "uint256"
        },
        {
          "internalType": "address",
          "name": "eventAddr",
          "type": "address"
        }
      ],
      "name": "listEvent",
      "outputs": [],
      "payable": false,
      "stateMutability": "nonpayable",
      "type": "function"
    }
  ],
  "bytecode": "0x608060405234801561001057600080fd5b506040516101993803806101998339818101604052602081101561003357600080fd5b8101908080519060200190929190505050806000806101000a81548173ffffffffffffffffffffffffffffffffffffffff021916908373ffffffffffffffffffffffffffffffffffffffff16021790555050610105806100946000396000f3fe6080604052348015600f57600080fd5b506004361060285760003560e01c80632649732514602d575b600080fd5b607660048036036040811015604157600080fd5b8101908080359060200190929190803573ffffffffffffffffffffffffffffffffffffffff1690602001909291905050506078565b005b33816001600085815260200190815260200160002060006101000a81548173ffffffffffffffffffffffffffffffffffffffff021916908373ffffffffffffffffffffffffffffffffffffffff16021790555050505056fea265627a7a72315820a9a6aa6b3efa13877fe633197ca8d869ba24b51ecd706c5fb57afd53693a360e64736f6c63430005110032",
  "source": "pragma solidity ^0.5.0;\r\n\r\nimport \"./Account.sol\";\r\n\r\ncontract Seller {\r\n    Account accountContract;\r\n    mapping(uint256 => address) eventList; // list eventID => eventAddr\r\n\r\n    constructor (Account accountAddr) public {\r\n        accountContract = accountAddr;\r\n    }\r\n    \r\n    modifier isSeller(address addr) {\r\n        //require(accountContract.viewAccountState() == Account.status.verified,\"You're not verified as a Seller\");\r\n        _;\r\n    }\r\n\r\n\r\n    // function applyPermissionToList(Address sellerAddr) public {\r\n    //     platformContract.applyPermission(sellerAddr);\r\n    //     \r\n    // }\r\n\r\n    // function changeSellerStatus(Platform platformContract, sellerStatus newStatus) public view () {\r\n    //     require(accountContract.viewAccountState() == Account.status.pending,\"You've yet to apply for permission to list\");\r\n    //    \r\n    //    \r\n    // }\r\n\r\n    function listEvent(uint256 eventId, address eventAddr) public isSeller( msg.sender) {\r\n        eventList[eventId] = eventAddr;\r\n    }\r\n\r\n\r\n}",
  "sourcePath": "C:\\Users\\remus\\Desktop\\3.2\\IS4302\\Project\\contracts\\Seller.sol",
  "compiler": {
    "name": "solc",
    "version": "0.5.17+commit.d19bba13.Emscripten.clang"
  },
  "schemaVersion": "3.4.11",
  "updatedAt": "2023-03-21T08:15:58.226Z",
  "devdoc": {
    "methods": {}
  },
  "userdoc": {
    "methods": {}
  }
}