{
  "contractName": "Ticket",
  "abi": [
    {
      "constant": true,
      "inputs": [],
      "name": "numTickets",
      "outputs": [
        {
          "internalType": "uint256",
          "name": "",
          "type": "uint256"
        }
      ],
      "payable": false,
      "stateMutability": "view",
      "type": "function"
    },
    {
      "constant": true,
      "inputs": [
        {
          "internalType": "uint256",
          "name": "",
          "type": "uint256"
        }
      ],
      "name": "tickets",
      "outputs": [
        {
          "internalType": "address",
          "name": "owner",
          "type": "address"
        },
        {
          "internalType": "uint256",
          "name": "eventId",
          "type": "uint256"
        },
        {
          "internalType": "uint256",
          "name": "price",
          "type": "uint256"
        },
        {
          "internalType": "enum Ticket.category",
          "name": "cat",
          "type": "uint8"
        },
        {
          "internalType": "uint256",
          "name": "seatid",
          "type": "uint256"
        }
      ],
      "payable": false,
      "stateMutability": "view",
      "type": "function"
    },
    {
      "constant": false,
      "inputs": [
        {
          "internalType": "uint256",
          "name": "eventId",
          "type": "uint256"
        },
        {
          "internalType": "uint256",
          "name": "price",
          "type": "uint256"
        },
        {
          "internalType": "enum Ticket.category",
          "name": "cat",
          "type": "uint8"
        },
        {
          "internalType": "uint256",
          "name": "seatid",
          "type": "uint256"
        }
      ],
      "name": "add",
      "outputs": [
        {
          "internalType": "uint256",
          "name": "",
          "type": "uint256"
        }
      ],
      "payable": false,
      "stateMutability": "nonpayable",
      "type": "function"
    },
    {
      "constant": true,
      "inputs": [
        {
          "internalType": "uint256",
          "name": "ticketId",
          "type": "uint256"
        }
      ],
      "name": "getTicketEvent",
      "outputs": [
        {
          "internalType": "uint256",
          "name": "",
          "type": "uint256"
        }
      ],
      "payable": false,
      "stateMutability": "view",
      "type": "function"
    },
    {
      "constant": true,
      "inputs": [
        {
          "internalType": "uint256",
          "name": "ticketId",
          "type": "uint256"
        }
      ],
      "name": "getTicketPrice",
      "outputs": [
        {
          "internalType": "uint256",
          "name": "",
          "type": "uint256"
        }
      ],
      "payable": false,
      "stateMutability": "view",
      "type": "function"
    },
    {
      "constant": true,
      "inputs": [
        {
          "internalType": "uint256",
          "name": "ticketId",
          "type": "uint256"
        }
      ],
      "name": "getTicketCat",
      "outputs": [
        {
          "internalType": "enum Ticket.category",
          "name": "",
          "type": "uint8"
        }
      ],
      "payable": false,
      "stateMutability": "view",
      "type": "function"
    },
    {
      "constant": true,
      "inputs": [
        {
          "internalType": "uint256",
          "name": "ticketId",
          "type": "uint256"
        }
      ],
      "name": "getTicketSeat",
      "outputs": [
        {
          "internalType": "uint256",
          "name": "",
          "type": "uint256"
        }
      ],
      "payable": false,
      "stateMutability": "view",
      "type": "function"
    }
  ],
  "bytecode": "0x60806040526000805534801561001457600080fd5b50610600806100246000396000f3fe608060405234801561001057600080fd5b506004361061007d5760003560e01c8063959bc48d1161005b578063959bc48d1461017a578063a433cbbc146101ca578063b48630c21461020c578063f06fc9611461026f5761007d565b80632b6fed0514610082578063353d90ec146100c457806350b44712146100e2575b600080fd5b6100ae6004803603602081101561009857600080fd5b81019080803590602001909291905050506102b1565b6040518082815260200191505060405180910390f35b6100cc6102e1565b6040518082815260200191505060405180910390f35b61010e600480360360208110156100f857600080fd5b81019080803590602001909291905050506102e7565b604051808673ffffffffffffffffffffffffffffffffffffffff1673ffffffffffffffffffffffffffffffffffffffff16815260200185815260200184815260200183600281111561015c57fe5b60ff1681526020018281526020019550505050505060405180910390f35b6101a66004803603602081101561019057600080fd5b810190808035906020019092919050505061034a565b604051808260028111156101b657fe5b60ff16815260200191505060405180910390f35b6101f6600480360360208110156101e057600080fd5b8101908080359060200190929190505050610387565b6040518082815260200191505060405180910390f35b6102596004803603608081101561022257600080fd5b810190808035906020019092919080359060200190929190803560ff169060200190929190803590602001909291905050506103b7565b6040518082815260200191505060405180910390f35b61029b6004803603602081101561028557600080fd5b8101908080359060200190929190505050610529565b6040518082815260200191505060405180910390f35b60008160005481106102c257600080fd5b6001600084815260200190815260200160002060040154915050919050565b60005481565b60016020528060005260406000206000915090508060000160009054906101000a900473ffffffffffffffffffffffffffffffffffffffff16908060010154908060020154908060030160009054906101000a900460ff16908060040154905085565b600081600054811061035b57600080fd5b6001600084815260200190815260200160002060030160009054906101000a900460ff16915050919050565b600081600054811061039857600080fd5b6001600084815260200190815260200160002060010154915050919050565b6000808411610411576040517f08c379a00000000000000000000000000000000000000000000000000000000081526004018080602001828103825260228152602001806105aa6022913960400191505060405180910390fd5b610419610559565b6040518060a001604052803373ffffffffffffffffffffffffffffffffffffffff16815260200187815260200186815260200185600281111561045857fe5b81526020018481525090506000806000815480929190600101919050559050816001600083815260200190815260200160002060008201518160000160006101000a81548173ffffffffffffffffffffffffffffffffffffffff021916908373ffffffffffffffffffffffffffffffffffffffff160217905550602082015181600101556040820151816002015560608201518160030160006101000a81548160ff0219169083600281111561050a57fe5b0217905550608082015181600401559050508092505050949350505050565b600081600054811061053a57600080fd5b6001600084815260200190815260200160002060020154915050919050565b6040518060a00160405280600073ffffffffffffffffffffffffffffffffffffffff16815260200160008152602001600081526020016000600281111561059c57fe5b815260200160008152509056fe5469636b65742070726963652063616e6e6f74206265206c657373207468656e2030a265627a7a7231582021d6e039174b1a547f12ce60a7551aeb2a548528a6bf161c4816a1cf8c5b152464736f6c63430005110032",
  "source": "pragma solidity ^0.5.0;\r\n\r\ncontract Ticket {\r\n\r\n    /**\r\n     * enum containing 'seating' categories\r\n     * floor:       general standing zone(s)\r\n     * standard:    standard seating zone(s)\r\n     * vip:         premium seating zone(s)\r\n     */\r\n    enum category {floor, standard, vip}\r\n\r\n    /**\r\n     * param owner     address of the owner of the ticket\r\n     * param eventId   id of the event the ticket belongs to\r\n     * param price     Price of ticket in tokens\r\n     * param cat       category of ticket \r\n     * param seatid    assigned seat/zone \r\n     */\r\n    struct ticket {\r\n        address owner;\r\n        uint256 eventId; // event is a keyword\r\n        uint256 price;\r\n        category cat;\r\n        uint256 seatid;\r\n    }\r\n\r\n    uint256 public numTickets = 0;  // Total number of tickets\r\n    mapping(uint256 => ticket) public tickets;  // Stores ticket\r\n\r\n    // modifier to ensure a function is callable only by its owner    \r\n    modifier ownerOnly(uint256 ticketId) {\r\n        require(tickets[ticketId].owner == msg.sender);\r\n        _;\r\n    }\r\n\r\n    // modifier to ensure ticketId is valid\r\n    modifier validTicketId(uint256 ticketId) {\r\n        require(ticketId < numTickets);\r\n        _;\r\n    }\r\n\r\n    /**\r\n     * creates a ticket and adds it to the ticket list\r\n     *\r\n     * param eventId   id of the event the ticket belongs to\r\n     * param price     Price of ticket in tokens\r\n     * param cat       category of ticket \r\n     * param seatid    assigned seat/zone\r\n     * return uint256  id of ticket that was created\r\n     */\r\n    function add(uint256 eventId, uint256 price, category cat, uint256 seatid) public returns (uint256) {\r\n        require(price > 0, \"Ticket price cannot be less then 0\");\r\n        // TODO: require user has enough tokens to purchase ticket (if ticket handles purchase)\r\n\r\n        ticket memory newTicket = ticket(msg.sender,\r\n                                         eventId,\r\n                                         price,\r\n                                         cat,\r\n                                         seatid);\r\n\r\n        uint256 newTicketId = numTickets++;\r\n        tickets[newTicketId] = newTicket;\r\n\r\n        return newTicketId;\r\n    }\r\n\r\n    /**\r\n     * gets the eventId of the event that the ticket is for\r\n     *\r\n     * param ticketID ID of ticket to query\r\n     * return eventId of ticket \r\n     */\r\n    function getTicketEvent(uint256 ticketId) public view validTicketId(ticketId) returns (uint256) {\r\n        return tickets[ticketId].eventId;\r\n    }\r\n\r\n    /**\r\n     * gets the price of the ticket\r\n     *\r\n     * param ticketID ID of ticket to query\r\n     * return uint256 price of ticket\r\n     */\r\n    function getTicketPrice(uint256 ticketId) public view validTicketId(ticketId) returns (uint256) {\r\n        return tickets[ticketId].price;\r\n    }\r\n\r\n    /**\r\n     * gets the category of the ticket\r\n     *\r\n     * param ticketID ID of ticket to query\r\n     * return category category of the ticket\r\n     */\r\n    function getTicketCat(uint256 ticketId) public view validTicketId(ticketId) returns (category) {\r\n        return tickets[ticketId].cat;\r\n    }\r\n\r\n    /**\r\n     * gets the ticket seat\r\n     *\r\n     * param ticketID ID of ticket to query\r\n     * return uint256 seatid of ticket\r\n     */\r\n    function getTicketSeat(uint256 ticketId) public view validTicketId(ticketId) returns (uint256) {\r\n        return tickets[ticketId].seatid;\r\n    }\r\n    \r\n}",
  "sourcePath": "C:\\Users\\remus\\Desktop\\3.2\\IS4302\\Project\\contracts\\Ticket.sol",
  "compiler": {
    "name": "solc",
    "version": "0.5.17+commit.d19bba13.Emscripten.clang"
  },
  "schemaVersion": "3.4.11",
  "updatedAt": "2023-03-21T08:15:58.228Z",
  "devdoc": {
    "methods": {}
  },
  "userdoc": {
    "methods": {
      "add(uint256,uint256,uint8,uint256)": {
        "notice": "creates a ticket and adds it to the ticket list      * param eventId   id of the event the ticket belongs to param price     Price of ticket in tokens param cat       category of ticket  param seatid    assigned seat/zone return uint256  id of ticket that was created"
      },
      "getTicketCat(uint256)": {
        "notice": "gets the category of the ticket      * param ticketID ID of ticket to query return category category of the ticket"
      },
      "getTicketEvent(uint256)": {
        "notice": "gets the eventId of the event that the ticket is for      * param ticketID ID of ticket to query return eventId of ticket "
      },
      "getTicketPrice(uint256)": {
        "notice": "gets the price of the ticket      * param ticketID ID of ticket to query return uint256 price of ticket"
      },
      "getTicketSeat(uint256)": {
        "notice": "gets the ticket seat      * param ticketID ID of ticket to query return uint256 seatid of ticket"
      }
    }
  }
}